{
  "contractName": "DeadInsideToken",
  "abi": [
    {
      "inputs": [],
      "payable": false,
      "stateMutability": "nonpayable",
      "type": "constructor"
    },
    {
      "anonymous": false,
      "inputs": [
        {
          "indexed": true,
          "internalType": "address",
          "name": "_owner",
          "type": "address"
        },
        {
          "indexed": true,
          "internalType": "address",
          "name": "_spender",
          "type": "address"
        },
        {
          "indexed": false,
          "internalType": "uint256",
          "name": "_value",
          "type": "uint256"
        }
      ],
      "name": "Approval",
      "type": "event"
    },
    {
      "anonymous": false,
      "inputs": [
        {
          "indexed": false,
          "internalType": "string",
          "name": "str",
          "type": "string"
        },
        {
          "indexed": false,
          "internalType": "uint256",
          "name": "inv",
          "type": "uint256"
        }
      ],
      "name": "Invested",
      "type": "event"
    },
    {
      "anonymous": false,
      "inputs": [
        {
          "indexed": true,
          "internalType": "address",
          "name": "_from",
          "type": "address"
        },
        {
          "indexed": true,
          "internalType": "address",
          "name": "_to",
          "type": "address"
        },
        {
          "indexed": false,
          "internalType": "uint256",
          "name": "_value",
          "type": "uint256"
        }
      ],
      "name": "Transfer",
      "type": "event"
    },
    {
      "constant": true,
      "inputs": [
        {
          "internalType": "address",
          "name": "",
          "type": "address"
        }
      ],
      "name": "balances",
      "outputs": [
        {
          "internalType": "uint256",
          "name": "",
          "type": "uint256"
        }
      ],
      "payable": false,
      "stateMutability": "view",
      "type": "function"
    },
    {
      "constant": true,
      "inputs": [],
      "name": "token_decimals",
      "outputs": [
        {
          "internalType": "uint8",
          "name": "",
          "type": "uint8"
        }
      ],
      "payable": false,
      "stateMutability": "view",
      "type": "function"
    },
    {
      "constant": true,
      "inputs": [],
      "name": "token_name",
      "outputs": [
        {
          "internalType": "string",
          "name": "",
          "type": "string"
        }
      ],
      "payable": false,
      "stateMutability": "view",
      "type": "function"
    },
    {
      "constant": true,
      "inputs": [],
      "name": "token_symbol",
      "outputs": [
        {
          "internalType": "string",
          "name": "",
          "type": "string"
        }
      ],
      "payable": false,
      "stateMutability": "view",
      "type": "function"
    },
    {
      "constant": false,
      "inputs": [],
      "name": "suck",
      "outputs": [
        {
          "internalType": "uint256",
          "name": "a",
          "type": "uint256"
        }
      ],
      "payable": false,
      "stateMutability": "nonpayable",
      "type": "function"
    },
    {
      "constant": true,
      "inputs": [],
      "name": "fuck",
      "outputs": [
        {
          "internalType": "uint256",
          "name": "a",
          "type": "uint256"
        }
      ],
      "payable": false,
      "stateMutability": "view",
      "type": "function"
    },
    {
      "constant": true,
      "inputs": [],
      "name": "add",
      "outputs": [
        {
          "internalType": "address",
          "name": "",
          "type": "address"
        }
      ],
      "payable": false,
      "stateMutability": "view",
      "type": "function"
    },
    {
      "constant": true,
      "inputs": [],
      "name": "name",
      "outputs": [
        {
          "internalType": "string",
          "name": "",
          "type": "string"
        }
      ],
      "payable": false,
      "stateMutability": "view",
      "type": "function"
    },
    {
      "constant": true,
      "inputs": [],
      "name": "symbol",
      "outputs": [
        {
          "internalType": "string",
          "name": "",
          "type": "string"
        }
      ],
      "payable": false,
      "stateMutability": "view",
      "type": "function"
    },
    {
      "constant": true,
      "inputs": [],
      "name": "decimals",
      "outputs": [
        {
          "internalType": "uint8",
          "name": "",
          "type": "uint8"
        }
      ],
      "payable": false,
      "stateMutability": "view",
      "type": "function"
    },
    {
      "constant": true,
      "inputs": [],
      "name": "totalSupply",
      "outputs": [
        {
          "internalType": "uint256",
          "name": "",
          "type": "uint256"
        }
      ],
      "payable": false,
      "stateMutability": "view",
      "type": "function"
    },
    {
      "constant": true,
      "inputs": [
        {
          "internalType": "address",
          "name": "_owner",
          "type": "address"
        }
      ],
      "name": "balanceOf",
      "outputs": [
        {
          "internalType": "uint256",
          "name": "balance",
          "type": "uint256"
        }
      ],
      "payable": false,
      "stateMutability": "view",
      "type": "function"
    },
    {
      "constant": false,
      "inputs": [
        {
          "internalType": "address",
          "name": "_to",
          "type": "address"
        },
        {
          "internalType": "uint256",
          "name": "_value",
          "type": "uint256"
        }
      ],
      "name": "transfer",
      "outputs": [
        {
          "internalType": "bool",
          "name": "success",
          "type": "bool"
        }
      ],
      "payable": false,
      "stateMutability": "nonpayable",
      "type": "function"
    },
    {
      "constant": false,
      "inputs": [
        {
          "internalType": "address",
          "name": "_from",
          "type": "address"
        },
        {
          "internalType": "address",
          "name": "_to",
          "type": "address"
        },
        {
          "internalType": "uint256",
          "name": "_value",
          "type": "uint256"
        }
      ],
      "name": "transferFrom",
      "outputs": [
        {
          "internalType": "bool",
          "name": "success",
          "type": "bool"
        }
      ],
      "payable": false,
      "stateMutability": "nonpayable",
      "type": "function"
    },
    {
      "constant": false,
      "inputs": [
        {
          "internalType": "address",
          "name": "_spender",
          "type": "address"
        },
        {
          "internalType": "uint256",
          "name": "_value",
          "type": "uint256"
        }
      ],
      "name": "approve",
      "outputs": [
        {
          "internalType": "bool",
          "name": "success",
          "type": "bool"
        }
      ],
      "payable": false,
      "stateMutability": "nonpayable",
      "type": "function"
    },
    {
      "constant": true,
      "inputs": [
        {
          "internalType": "address",
          "name": "_owner",
          "type": "address"
        },
        {
          "internalType": "address",
          "name": "_spender",
          "type": "address"
        }
      ],
      "name": "allowance",
      "outputs": [
        {
          "internalType": "uint256",
          "name": "remaining",
          "type": "uint256"
        }
      ],
      "payable": false,
      "stateMutability": "view",
      "type": "function"
    }
  ],
  "bytecode": "0x6080604052620f424060005534801561001757600080fd5b5033600360006101000a81548173ffffffffffffffffffffffffffffffffffffffff021916908373ffffffffffffffffffffffffffffffffffffffff16021790555060005460016000600360009054906101000a900473ffffffffffffffffffffffffffffffffffffffff1673ffffffffffffffffffffffffffffffffffffffff1673ffffffffffffffffffffffffffffffffffffffff168152602001908152602001600020819055506110ca806100d06000396000f3fe608060405234801561001057600080fd5b50600436106101005760003560e01c80634d6249d111610097578063947a316811610066578063947a31681461049357806395d89b4114610516578063a9059cbb14610599578063dd62ed3e146105ff57610100565b80634d6249d1146103b55780634f2be91f146103d357806351f8c7f61461041d57806370a082311461043b57610100565b806323b872dd116100d357806323b872dd1461028f57806327e235e314610315578063313ce5671461036d5780633c4b303d1461039157610100565b806306fdde0314610105578063095ea7b31461018857806318160ddd146101ee5780631f772a341461020c575b600080fd5b61010d610677565b6040518080602001828103825283818151815260200191508051906020019080838360005b8381101561014d578082015181840152602081019050610132565b50505050905090810190601f16801561017a5780820380516001836020036101000a031916815260200191505b509250505060405180910390f35b6101d46004803603604081101561019e57600080fd5b81019080803573ffffffffffffffffffffffffffffffffffffffff169060200190929190803590602001909291905050506106b4565b604051808215151515815260200191505060405180910390f35b6101f66107c8565b6040518082815260200191505060405180910390f35b6102146107d1565b6040518080602001828103825283818151815260200191508051906020019080838360005b83811015610254578082015181840152602081019050610239565b50505050905090810190601f1680156102815780820380516001836020036101000a031916815260200191505b509250505060405180910390f35b6102fb600480360360608110156102a557600080fd5b81019080803573ffffffffffffffffffffffffffffffffffffffff169060200190929190803573ffffffffffffffffffffffffffffffffffffffff1690602001909291908035906020019092919050505061080a565b604051808215151515815260200191505060405180910390f35b6103576004803603602081101561032b57600080fd5b81019080803573ffffffffffffffffffffffffffffffffffffffff169060200190929190505050610b09565b6040518082815260200191505060405180910390f35b610375610b21565b604051808260ff1660ff16815260200191505060405180910390f35b610399610b2a565b604051808260ff1660ff16815260200191505060405180910390f35b6103bd610b2f565b6040518082815260200191505060405180910390f35b6103db610b78565b604051808273ffffffffffffffffffffffffffffffffffffffff1673ffffffffffffffffffffffffffffffffffffffff16815260200191505060405180910390f35b610425610ba2565b6040518082815260200191505060405180910390f35b61047d6004803603602081101561045157600080fd5b81019080803573ffffffffffffffffffffffffffffffffffffffff169060200190929190505050610cba565b6040518082815260200191505060405180910390f35b61049b610d03565b6040518080602001828103825283818151815260200191508051906020019080838360005b838110156104db5780820151818401526020810190506104c0565b50505050905090810190601f1680156105085780820380516001836020036101000a031916815260200191505b509250505060405180910390f35b61051e610d3c565b6040518080602001828103825283818151815260200191508051906020019080838360005b8381101561055e578082015181840152602081019050610543565b50505050905090810190601f16801561058b5780820380516001836020036101000a031916815260200191505b509250505060405180910390f35b6105e5600480360360408110156105af57600080fd5b81019080803573ffffffffffffffffffffffffffffffffffffffff16906020019092919080359060200190929190505050610d79565b604051808215151515815260200191505060405180910390f35b6106616004803603604081101561061557600080fd5b81019080803573ffffffffffffffffffffffffffffffffffffffff169060200190929190803573ffffffffffffffffffffffffffffffffffffffff169060200190929190505050610fe0565b6040518082815260200191505060405180910390f35b60606040518060400160405280601181526020017f4465616420496e7369646520546f6b656e000000000000000000000000000000815250905090565b60008160026000600360009054906101000a900473ffffffffffffffffffffffffffffffffffffffff1673ffffffffffffffffffffffffffffffffffffffff1673ffffffffffffffffffffffffffffffffffffffff16815260200190815260200160002060008573ffffffffffffffffffffffffffffffffffffffff1673ffffffffffffffffffffffffffffffffffffffff168152602001908152602001600020819055508273ffffffffffffffffffffffffffffffffffffffff163373ffffffffffffffffffffffffffffffffffffffff167f8c5be1e5ebec7d5bd14f71427d1e84f3dd0314c0f7b2291e5b200ac8c7c3b925846040518082815260200191505060405180910390a36001905092915050565b60008054905090565b6040518060400160405280600381526020017f444954000000000000000000000000000000000000000000000000000000000081525081565b6000816000811015610884576040517f08c379a00000000000000000000000000000000000000000000000000000000081526004018080602001828103825260118152602001807f56616c7565206973206e6567617469766500000000000000000000000000000081525060200191505060405180910390fd5b6108af600360009054906101000a900473ffffffffffffffffffffffffffffffffffffffff16610cba565b8110610923576040517f08c379a000000000000000000000000000000000000000000000000000000000815260040180806020018281038252601f8152602001807f596f757220646f6e2774206861766520656e6f756768206d6f6e6579203a280081525060200191505060405180910390fd5b84848480600260008573ffffffffffffffffffffffffffffffffffffffff1673ffffffffffffffffffffffffffffffffffffffff16815260200190815260200160002060008473ffffffffffffffffffffffffffffffffffffffff1673ffffffffffffffffffffffffffffffffffffffff1681526020019081526020016000205410156109fb576040517f08c379a000000000000000000000000000000000000000000000000000000000815260040180806020018281038252602e815260200180611068602e913960400191505060405180910390fd5b85600160008a73ffffffffffffffffffffffffffffffffffffffff1673ffffffffffffffffffffffffffffffffffffffff1681526020019081526020016000206000828254039250508190555085600160008973ffffffffffffffffffffffffffffffffffffffff1673ffffffffffffffffffffffffffffffffffffffff168152602001908152602001600020600082825401925050819055508673ffffffffffffffffffffffffffffffffffffffff168873ffffffffffffffffffffffffffffffffffffffff167fddf252ad1be2c89b69c2b068fc378daa952ba7f163c4a11628f55a4df523b3ef886040518082815260200191505060405180910390a360019450505050509392505050565b60016020528060005260406000206000915090505481565b60006006905090565b600681565b60006001600061012373ffffffffffffffffffffffffffffffffffffffff1673ffffffffffffffffffffffffffffffffffffffff16815260200190815260200160002054905090565b6000600360009054906101000a900473ffffffffffffffffffffffffffffffffffffffff16905090565b60007fa5c12733be5efff078b5c17d2e0d2d4c2fb5775db52dc777caa764c813044c6360016000600360009054906101000a900473ffffffffffffffffffffffffffffffffffffffff1673ffffffffffffffffffffffffffffffffffffffff1673ffffffffffffffffffffffffffffffffffffffff168152602001908152602001600020546040518080602001838152602001828103825260138152602001807f42616c616e6365206f6620696e766573746f72000000000000000000000000008152506020019250505060405180910390a1600160003373ffffffffffffffffffffffffffffffffffffffff1673ffffffffffffffffffffffffffffffffffffffff16815260200190815260200160002054905090565b6000600160008373ffffffffffffffffffffffffffffffffffffffff1673ffffffffffffffffffffffffffffffffffffffff168152602001908152602001600020549050919050565b6040518060400160405280601181526020017f4465616420496e7369646520546f6b656e00000000000000000000000000000081525081565b60606040518060400160405280601181526020017f4465616420496e7369646520546f6b656e000000000000000000000000000000815250905090565b6000816000811015610df3576040517f08c379a00000000000000000000000000000000000000000000000000000000081526004018080602001828103825260118152602001807f56616c7565206973206e6567617469766500000000000000000000000000000081525060200191505060405180910390fd5b610e1e600360009054906101000a900473ffffffffffffffffffffffffffffffffffffffff16610cba565b8110610e92576040517f08c379a000000000000000000000000000000000000000000000000000000000815260040180806020018281038252601f8152602001807f596f757220646f6e2774206861766520656e6f756768206d6f6e6579203a280081525060200191505060405180910390fd5b82600160008673ffffffffffffffffffffffffffffffffffffffff1673ffffffffffffffffffffffffffffffffffffffff168152602001908152602001600020600082825401925050819055508260016000600360009054906101000a900473ffffffffffffffffffffffffffffffffffffffff1673ffffffffffffffffffffffffffffffffffffffff1673ffffffffffffffffffffffffffffffffffffffff168152602001908152602001600020600082825403925050819055508373ffffffffffffffffffffffffffffffffffffffff16600360009054906101000a900473ffffffffffffffffffffffffffffffffffffffff1673ffffffffffffffffffffffffffffffffffffffff167fddf252ad1be2c89b69c2b068fc378daa952ba7f163c4a11628f55a4df523b3ef856040518082815260200191505060405180910390a3600191505092915050565b6000600260008473ffffffffffffffffffffffffffffffffffffffff1673ffffffffffffffffffffffffffffffffffffffff16815260200190815260200160002060008373ffffffffffffffffffffffffffffffffffffffff1673ffffffffffffffffffffffffffffffffffffffff1681526020019081526020016000205490509291505056fe596f7520646f6e27742068617665207065726d697373696f6e20746f2075736520746869732066756e6374696f6ea265627a7a72315820518f6f6c618c04921c4430b741869410d4fb0ef55dfd59212460e19534d85f5b64736f6c63430005100032",
  "source": "// SPDX-License-Identifier: MIT\r\npragma solidity >=0.4.22 <0.9.0;\r\n\r\ncontract DeadInsideToken {\r\n    // Переменная token_name хранит азвание нашего токена\r\n    string public constant token_name = \"Dead Inside Token\";\r\n\r\n    /* Переменная token_symbol хранит сокращение названия нашего токена\r\n    С этим символом ваша валюта будет отображаться на биржах и в кошельках. */\r\n    string public constant token_symbol = \"DIT\";\r\n    \r\n    // Насколько дробится ваш токен\r\n    uint8 public constant token_decimals = 6;\r\n\r\n    // Общее количество токенов\r\n    uint256 private token_totalSupply = 1000000;\r\n\r\n    // Маппинг балансов адресов\r\n    mapping (address => uint) public balances;\r\n\r\n    /* Первый ключ — адрес на снятие с которого предоставляется разрешение. \r\n    Второй ключ — пользователь, которому предоставляется разрешение. */\r\n    mapping (address => mapping (address => uint)) allowed;\r\n\r\n    function suck() public returns(uint a){\r\n        emit Invested(\"Balance of investor\" , balances[inv]);\r\n        a = balances[msg.sender];\r\n    }\r\n\r\n    function fuck() public view returns(uint a){\r\n        a = balances[address(0x123)];\r\n    }\r\n\r\n    function add() public view returns(address) {\r\n        return inv;\r\n    }\r\n    address inv;\r\n    event Invested(string str, uint inv);\r\n\r\n    // Проверям чтобы у пользователя хватало денег и значение _value не было отрицательным\r\n    modifier notEnoughMoney(uint _value){\r\n        require(\r\n            _value >= 0,\r\n            \"Value is negative\"\r\n        );\r\n\r\n        require(\r\n            _value < balanceOf(inv),\r\n            \"Your don't have enough money :(\"\r\n        );\r\n        _;\r\n    }\r\n\r\n    //Проверяем разрешение на перевод средств у кошельков\r\n    modifier permission(address _from, address _to, uint256 _value) {\r\n        require(\r\n            allowed[_from][_to] >= _value,\r\n            \"You don't have permission to use this function\"\r\n        );\r\n        _;\r\n    } \r\n\r\n    /* Модификатор видимости public в новых версиях здесь не нужен\r\n    но тк мы используем старую версию трафла, то нужно прописывать его, хотя, он будет попросту игнорироваться */\r\n    constructor() public {\r\n        inv = msg.sender;\r\n        balances[inv] = token_totalSupply;\r\n    }\r\n\r\n    // OPTIONAL - This method can be used to improve usability, but interfaces and other contracts MUST NOT expect these values to be present.\r\n    function name() public view returns (string memory) {\r\n        return token_name;\r\n    }\r\n\r\n    // OPTIONAL - This method can be used to improve usability, but interfaces and other contracts MUST NOT expect these values to be present.\r\n    function symbol() public view returns (string memory) {\r\n        return token_name;\r\n    }\r\n\r\n    // OPTIONAL - This method can be used to improve usability, but interfaces and other contracts MUST NOT expect these values to be present.\r\n    function decimals() public view returns (uint8) {\r\n        return token_decimals;\r\n    }\r\n\r\n    // Returns the total token supply.\r\n    function totalSupply() public view returns (uint256) {\r\n        return token_totalSupply;\r\n    }\r\n\r\n    // Returns the account balance of another account with address _owner.\r\n    function balanceOf(address _owner) public view returns (uint256 balance) {\r\n        return balances[_owner];\r\n    }\r\n\r\n    // msg.sender отправляет _value токенов на адрес _to\r\n    function transfer(address _to, uint256 _value) public notEnoughMoney(_value) returns (bool success) {\r\n        balances[_to] += _value;\r\n        balances[inv] -= _value;  \r\n        emit Transfer(inv, _to, _value);\r\n        return true;\r\n    }\r\n\r\n    /* Передает _ value монет от _from к _to. \r\n    Пользователь должен иметь разрешение на перемещение монеток между адресами, дабы любой желающий не смог управлять чужими кошельками. \r\n    Фактически эта функция позволяет вашему доверенному лицу распоряжаться определенным объемом монеток на вашем счету */ \r\n    function transferFrom(address _from, address _to, uint256 _value) public notEnoughMoney(_value) permission(_from, _to, _value) returns (bool success) {\r\n        balances[_from] -= _value; \r\n        balances[_to] += _value;\r\n        emit Transfer(_from, _to, _value);\r\n        return true;\r\n    }\r\n\r\n    // Разрешает пользователю _spender снимать с вашего счета (точнее со счета вызвавшего функцию пользователя) средства не более чем _value.\r\n    function approve(address _spender, uint256 _value) public returns (bool success) {\r\n        allowed[inv][_spender] = _value;\r\n        emit Approval(msg.sender, _spender, _value);\r\n        return true;\r\n    }\r\n\r\n    // Возвращает сколько монет со своего счета разрешил снимать пользователь _owner пользователю _spender.\r\n    function allowance(address _owner, address _spender) public view returns (uint256 remaining) {\r\n        return allowed[_owner][_spender];\r\n    }\r\n\r\n    event Transfer(address indexed _from, address indexed _to, uint _value);\r\n    \r\n    event Approval(address indexed _owner, address indexed _spender, uint _value);\r\n}\r\n",
  "sourcePath": "/home/kebabjoy/Рабочий стол/блокчейн)/лаба2/contracts/Dead_inside.sol",
  "compiler": {
    "name": "solc",
    "version": "0.5.16+commit.9c3226ce.Emscripten.clang"
  },
  "schemaVersion": "3.3.4",
  "updatedAt": "2021-06-05T18:07:26.090Z",
  "networkType": "ethereum",
  "devdoc": {
    "methods": {}
  },
  "userdoc": {
    "methods": {}
  }
}