{
  "contractName": "YoungInvestor",
  "abi": [
    {
      "inputs": [
        {
          "internalType": "address",
          "name": "lol",
          "type": "address"
        }
      ],
      "payable": false,
      "stateMutability": "nonpayable",
      "type": "constructor"
    },
    {
      "anonymous": false,
      "inputs": [
        {
          "indexed": false,
          "internalType": "uint256",
          "name": "bal",
          "type": "uint256"
        }
      ],
      "name": "Balance",
      "type": "event"
    },
    {
      "anonymous": false,
      "inputs": [
        {
          "indexed": false,
          "internalType": "string",
          "name": "gr",
          "type": "string"
        }
      ],
      "name": "Gratitude",
      "type": "event"
    },
    {
      "anonymous": false,
      "inputs": [
        {
          "indexed": false,
          "internalType": "string",
          "name": "str",
          "type": "string"
        },
        {
          "indexed": false,
          "internalType": "uint256",
          "name": "inv",
          "type": "uint256"
        }
      ],
      "name": "Invested",
      "type": "event"
    },
    {
      "constant": true,
      "inputs": [],
      "name": "token",
      "outputs": [
        {
          "internalType": "contract DeadInsideToken",
          "name": "",
          "type": "address"
        }
      ],
      "payable": false,
      "stateMutability": "view",
      "type": "function"
    },
    {
      "constant": false,
      "inputs": [
        {
          "internalType": "address",
          "name": "add_1",
          "type": "address"
        },
        {
          "internalType": "address",
          "name": "add_2",
          "type": "address"
        },
        {
          "internalType": "address",
          "name": "add_3",
          "type": "address"
        }
      ],
      "name": "init",
      "outputs": [],
      "payable": false,
      "stateMutability": "nonpayable",
      "type": "function"
    },
    {
      "constant": true,
      "inputs": [],
      "name": "getInvestorAddress",
      "outputs": [
        {
          "internalType": "address",
          "name": "",
          "type": "address"
        }
      ],
      "payable": false,
      "stateMutability": "view",
      "type": "function"
    },
    {
      "constant": true,
      "inputs": [],
      "name": "getCatHouseAddress",
      "outputs": [
        {
          "internalType": "address",
          "name": "",
          "type": "address"
        }
      ],
      "payable": false,
      "stateMutability": "view",
      "type": "function"
    },
    {
      "constant": true,
      "inputs": [],
      "name": "getPhilipMorrisAddress",
      "outputs": [
        {
          "internalType": "address",
          "name": "",
          "type": "address"
        }
      ],
      "payable": false,
      "stateMutability": "view",
      "type": "function"
    },
    {
      "constant": true,
      "inputs": [],
      "name": "getMisisAddress",
      "outputs": [
        {
          "internalType": "address",
          "name": "",
          "type": "address"
        }
      ],
      "payable": false,
      "stateMutability": "view",
      "type": "function"
    },
    {
      "constant": false,
      "inputs": [
        {
          "internalType": "uint256",
          "name": "_value",
          "type": "uint256"
        }
      ],
      "name": "investCats",
      "outputs": [],
      "payable": false,
      "stateMutability": "nonpayable",
      "type": "function"
    },
    {
      "constant": false,
      "inputs": [
        {
          "internalType": "uint256",
          "name": "_value",
          "type": "uint256"
        }
      ],
      "name": "investPhilipMorris",
      "outputs": [],
      "payable": false,
      "stateMutability": "nonpayable",
      "type": "function"
    },
    {
      "constant": false,
      "inputs": [
        {
          "internalType": "uint256",
          "name": "_value",
          "type": "uint256"
        }
      ],
      "name": "investMisis",
      "outputs": [],
      "payable": false,
      "stateMutability": "nonpayable",
      "type": "function"
    },
    {
      "constant": false,
      "inputs": [],
      "name": "balance",
      "outputs": [
        {
          "internalType": "uint256",
          "name": "",
          "type": "uint256"
        }
      ],
      "payable": false,
      "stateMutability": "nonpayable",
      "type": "function"
    },
    {
      "constant": false,
      "inputs": [],
      "name": "investedMisis",
      "outputs": [],
      "payable": false,
      "stateMutability": "nonpayable",
      "type": "function"
    },
    {
      "constant": false,
      "inputs": [],
      "name": "investedPhilipMorris",
      "outputs": [],
      "payable": false,
      "stateMutability": "nonpayable",
      "type": "function"
    },
    {
      "constant": false,
      "inputs": [],
      "name": "investedCatHouse",
      "outputs": [],
      "payable": false,
      "stateMutability": "nonpayable",
      "type": "function"
    }
  ],
  "bytecode": "0x608060405234801561001057600080fd5b50604051611afc380380611afc8339818101604052602081101561003357600080fd5b810190808051906020019092919050505080600160006101000a81548173ffffffffffffffffffffffffffffffffffffffff021916908373ffffffffffffffffffffffffffffffffffffffff160217905550600160009054906101000a900473ffffffffffffffffffffffffffffffffffffffff1673ffffffffffffffffffffffffffffffffffffffff1663a9059cbb6000809054906101000a900473ffffffffffffffffffffffffffffffffffffffff1661c3506040518363ffffffff1660e01b8152600401808373ffffffffffffffffffffffffffffffffffffffff1673ffffffffffffffffffffffffffffffffffffffff16815260200182815260200192505050602060405180830381600087803b15801561015157600080fd5b505af1158015610165573d6000803e3d6000fd5b505050506040513d602081101561017b57600080fd5b8101908080519060200190929190505050505061195f8061019d6000396000f3fe608060405234801561001057600080fd5b50600436106100ce5760003560e01c80638d7fbe161161008c578063c92dba3311610066578063c92dba3314610283578063d2f7fbd4146102cd578063ea00425614610317578063fc0c546a14610345576100ce565b80638d7fbe161461022d578063aaa74acc1461025b578063b69ef8a814610265576100ce565b8062f8e426146100d3578063184b9559146101015780631be29f47146101855780631e86ffe61461018f5780631fc746b61461019957806360a113ed146101e3575b600080fd5b6100ff600480360360208110156100e957600080fd5b810190808035906020019092919050505061038f565b005b6101836004803603606081101561011757600080fd5b81019080803573ffffffffffffffffffffffffffffffffffffffff169060200190929190803573ffffffffffffffffffffffffffffffffffffffff169060200190929190803573ffffffffffffffffffffffffffffffffffffffff1690602001909291905050506105fe565b005b61018d61065e565b005b6101976107ce565b005b6101a161093e565b604051808273ffffffffffffffffffffffffffffffffffffffff1673ffffffffffffffffffffffffffffffffffffffff16815260200191505060405180910390f35b6101eb61096b565b604051808273ffffffffffffffffffffffffffffffffffffffff1673ffffffffffffffffffffffffffffffffffffffff16815260200191505060405180910390f35b6102596004803603602081101561024357600080fd5b8101908080359060200190929190505050610998565b005b610263610c07565b005b61026d610d77565b6040518082815260200191505060405180910390f35b61028b610fe3565b604051808273ffffffffffffffffffffffffffffffffffffffff1673ffffffffffffffffffffffffffffffffffffffff16815260200191505060405180910390f35b6102d561100c565b604051808273ffffffffffffffffffffffffffffffffffffffff1673ffffffffffffffffffffffffffffffffffffffff16815260200191505060405180910390f35b6103436004803603602081101561032d57600080fd5b8101908080359060200190929190505050611039565b005b61034d6112a8565b604051808273ffffffffffffffffffffffffffffffffffffffff1673ffffffffffffffffffffffffffffffffffffffff16815260200191505060405180910390f35b6000809054906101000a900473ffffffffffffffffffffffffffffffffffffffff1673ffffffffffffffffffffffffffffffffffffffff163373ffffffffffffffffffffffffffffffffffffffff1614610434576040517f08c379a000000000000000000000000000000000000000000000000000000000815260040180806020018281038252602e8152602001806118fd602e913960400191505060405180910390fd5b600160009054906101000a900473ffffffffffffffffffffffffffffffffffffffff1673ffffffffffffffffffffffffffffffffffffffff1663a9059cbb600660010160009054906101000a900473ffffffffffffffffffffffffffffffffffffffff16836040518363ffffffff1660e01b8152600401808373ffffffffffffffffffffffffffffffffffffffff1673ffffffffffffffffffffffffffffffffffffffff16815260200182815260200192505050602060405180830381600087803b15801561050257600080fd5b505af1158015610516573d6000803e3d6000fd5b505050506040513d602081101561052c57600080fd5b8101908080519060200190929190505050507f395bc51552031db2512ddf33cec0680c8a9eb530d84bfd9d60bb2aa50d6bd834600660000160405180806020018281038252838181546001816001161561010002031660029004815260200191508054600181600116156101000203166002900480156105ed5780601f106105c2576101008083540402835291602001916105ed565b820191906000526020600020905b8154815290600101906020018083116105d057829003601f168201915b50509250505060405180910390a150565b336000806101000a81548173ffffffffffffffffffffffffffffffffffffffff021916908373ffffffffffffffffffffffffffffffffffffffff160217905550610647836112ce565b610650826114a5565b6106598161167c565b505050565b7fa5c12733be5efff078b5c17d2e0d2d4c2fb5775db52dc777caa764c813044c63600160009054906101000a900473ffffffffffffffffffffffffffffffffffffffff1673ffffffffffffffffffffffffffffffffffffffff166370a08231600260010160009054906101000a900473ffffffffffffffffffffffffffffffffffffffff166040518263ffffffff1660e01b8152600401808273ffffffffffffffffffffffffffffffffffffffff1673ffffffffffffffffffffffffffffffffffffffff16815260200191505060206040518083038186803b15801561074357600080fd5b505afa158015610757573d6000803e3d6000fd5b505050506040513d602081101561076d57600080fd5b81019080805190602001909291905050506040518080602001838152602001828103825260148152602001807f496e76657374656420696e20436174486f7573650000000000000000000000008152506020019250505060405180910390a1565b7fa5c12733be5efff078b5c17d2e0d2d4c2fb5775db52dc777caa764c813044c63600160009054906101000a900473ffffffffffffffffffffffffffffffffffffffff1673ffffffffffffffffffffffffffffffffffffffff166370a08231600460010160009054906101000a900473ffffffffffffffffffffffffffffffffffffffff166040518263ffffffff1660e01b8152600401808273ffffffffffffffffffffffffffffffffffffffff1673ffffffffffffffffffffffffffffffffffffffff16815260200191505060206040518083038186803b1580156108b357600080fd5b505afa1580156108c7573d6000803e3d6000fd5b505050506040513d60208110156108dd57600080fd5b81019080805190602001909291905050506040518080602001838152602001828103825260188152602001807f496e76657374656420696e205068696c69704d6f7272697300000000000000008152506020019250505060405180910390a1565b6000600460010160009054906101000a900473ffffffffffffffffffffffffffffffffffffffff16905090565b6000600660010160009054906101000a900473ffffffffffffffffffffffffffffffffffffffff16905090565b6000809054906101000a900473ffffffffffffffffffffffffffffffffffffffff1673ffffffffffffffffffffffffffffffffffffffff163373ffffffffffffffffffffffffffffffffffffffff1614610a3d576040517f08c379a000000000000000000000000000000000000000000000000000000000815260040180806020018281038252602e8152602001806118fd602e913960400191505060405180910390fd5b600160009054906101000a900473ffffffffffffffffffffffffffffffffffffffff1673ffffffffffffffffffffffffffffffffffffffff1663a9059cbb600260010160009054906101000a900473ffffffffffffffffffffffffffffffffffffffff16836040518363ffffffff1660e01b8152600401808373ffffffffffffffffffffffffffffffffffffffff1673ffffffffffffffffffffffffffffffffffffffff16815260200182815260200192505050602060405180830381600087803b158015610b0b57600080fd5b505af1158015610b1f573d6000803e3d6000fd5b505050506040513d6020811015610b3557600080fd5b8101908080519060200190929190505050507f395bc51552031db2512ddf33cec0680c8a9eb530d84bfd9d60bb2aa50d6bd83460026000016040518080602001828103825283818154600181600116156101000203166002900481526020019150805460018160011615610100020316600290048015610bf65780601f10610bcb57610100808354040283529160200191610bf6565b820191906000526020600020905b815481529060010190602001808311610bd957829003601f168201915b50509250505060405180910390a150565b7fa5c12733be5efff078b5c17d2e0d2d4c2fb5775db52dc777caa764c813044c63600160009054906101000a900473ffffffffffffffffffffffffffffffffffffffff1673ffffffffffffffffffffffffffffffffffffffff166370a08231600660010160009054906101000a900473ffffffffffffffffffffffffffffffffffffffff166040518263ffffffff1660e01b8152600401808273ffffffffffffffffffffffffffffffffffffffff1673ffffffffffffffffffffffffffffffffffffffff16815260200191505060206040518083038186803b158015610cec57600080fd5b505afa158015610d00573d6000803e3d6000fd5b505050506040513d6020811015610d1657600080fd5b81019080805190602001909291905050506040518080602001838152602001828103825260118152602001807f496e76657374656420696e204d495349530000000000000000000000000000008152506020019250505060405180910390a1565b60007fa5c12733be5efff078b5c17d2e0d2d4c2fb5775db52dc777caa764c813044c63600160009054906101000a900473ffffffffffffffffffffffffffffffffffffffff1673ffffffffffffffffffffffffffffffffffffffff166370a082316000809054906101000a900473ffffffffffffffffffffffffffffffffffffffff166040518263ffffffff1660e01b8152600401808273ffffffffffffffffffffffffffffffffffffffff1673ffffffffffffffffffffffffffffffffffffffff16815260200191505060206040518083038186803b158015610e5a57600080fd5b505afa158015610e6e573d6000803e3d6000fd5b505050506040513d6020811015610e8457600080fd5b81019080805190602001909291905050506040518080602001838152602001828103825260138152602001807f42616c616e6365206f6620696e766573746f72000000000000000000000000008152506020019250505060405180910390a1600160009054906101000a900473ffffffffffffffffffffffffffffffffffffffff1673ffffffffffffffffffffffffffffffffffffffff166370a082316000809054906101000a900473ffffffffffffffffffffffffffffffffffffffff166040518263ffffffff1660e01b8152600401808273ffffffffffffffffffffffffffffffffffffffff1673ffffffffffffffffffffffffffffffffffffffff16815260200191505060206040518083038186803b158015610fa357600080fd5b505afa158015610fb7573d6000803e3d6000fd5b505050506040513d6020811015610fcd57600080fd5b8101908080519060200190929190505050905090565b60008060009054906101000a900473ffffffffffffffffffffffffffffffffffffffff16905090565b6000600260010160009054906101000a900473ffffffffffffffffffffffffffffffffffffffff16905090565b6000809054906101000a900473ffffffffffffffffffffffffffffffffffffffff1673ffffffffffffffffffffffffffffffffffffffff163373ffffffffffffffffffffffffffffffffffffffff16146110de576040517f08c379a000000000000000000000000000000000000000000000000000000000815260040180806020018281038252602e8152602001806118fd602e913960400191505060405180910390fd5b600160009054906101000a900473ffffffffffffffffffffffffffffffffffffffff1673ffffffffffffffffffffffffffffffffffffffff1663a9059cbb600460010160009054906101000a900473ffffffffffffffffffffffffffffffffffffffff16836040518363ffffffff1660e01b8152600401808373ffffffffffffffffffffffffffffffffffffffff1673ffffffffffffffffffffffffffffffffffffffff16815260200182815260200192505050602060405180830381600087803b1580156111ac57600080fd5b505af11580156111c0573d6000803e3d6000fd5b505050506040513d60208110156111d657600080fd5b8101908080519060200190929190505050507f395bc51552031db2512ddf33cec0680c8a9eb530d84bfd9d60bb2aa50d6bd834600460000160405180806020018281038252838181546001816001161561010002031660029004815260200191508054600181600116156101000203166002900480156112975780601f1061126c57610100808354040283529160200191611297565b820191906000526020600020905b81548152906001019060200180831161127a57829003601f168201915b50509250505060405180910390a150565b600160009054906101000a900473ffffffffffffffffffffffffffffffffffffffff1681565b60405180604001604052806040518060400160405280601881526020017f4e6f77206361747320617265206d6f726520686170707921000000000000000081525081526020018273ffffffffffffffffffffffffffffffffffffffff168152506002600082015181600001908051906020019061134c929190611836565b5060208201518160010160006101000a81548173ffffffffffffffffffffffffffffffffffffffff021916908373ffffffffffffffffffffffffffffffffffffffff160217905550905050600160009054906101000a900473ffffffffffffffffffffffffffffffffffffffff1673ffffffffffffffffffffffffffffffffffffffff1663a9059cbb600260010160009054906101000a900473ffffffffffffffffffffffffffffffffffffffff1660006040518363ffffffff1660e01b8152600401808373ffffffffffffffffffffffffffffffffffffffff1673ffffffffffffffffffffffffffffffffffffffff16815260200182815260200192505050602060405180830381600087803b15801561146657600080fd5b505af115801561147a573d6000803e3d6000fd5b505050506040513d602081101561149057600080fd5b81019080805190602001909291905050505050565b60405180604001604052806040518060400160405280601b81526020017f4e6f7720746865726520617265206d6f726520736d6f6b65727321000000000081525081526020018273ffffffffffffffffffffffffffffffffffffffff1681525060046000820151816000019080519060200190611523929190611836565b5060208201518160010160006101000a81548173ffffffffffffffffffffffffffffffffffffffff021916908373ffffffffffffffffffffffffffffffffffffffff160217905550905050600160009054906101000a900473ffffffffffffffffffffffffffffffffffffffff1673ffffffffffffffffffffffffffffffffffffffff1663a9059cbb600460010160009054906101000a900473ffffffffffffffffffffffffffffffffffffffff1660006040518363ffffffff1660e01b8152600401808373ffffffffffffffffffffffffffffffffffffffff1673ffffffffffffffffffffffffffffffffffffffff16815260200182815260200192505050602060405180830381600087803b15801561163d57600080fd5b505af1158015611651573d6000803e3d6000fd5b505050506040513d602081101561166757600080fd5b81019080805190602001909291905050505050565b60405180604001604052806040518060600160405280602181526020016118dc6021913981526020018273ffffffffffffffffffffffffffffffffffffffff16815250600660008201518160000190805190602001906116dd929190611836565b5060208201518160010160006101000a81548173ffffffffffffffffffffffffffffffffffffffff021916908373ffffffffffffffffffffffffffffffffffffffff160217905550905050600160009054906101000a900473ffffffffffffffffffffffffffffffffffffffff1673ffffffffffffffffffffffffffffffffffffffff1663a9059cbb600660010160009054906101000a900473ffffffffffffffffffffffffffffffffffffffff1660006040518363ffffffff1660e01b8152600401808373ffffffffffffffffffffffffffffffffffffffff1673ffffffffffffffffffffffffffffffffffffffff16815260200182815260200192505050602060405180830381600087803b1580156117f757600080fd5b505af115801561180b573d6000803e3d6000fd5b505050506040513d602081101561182157600080fd5b81019080805190602001909291905050505050565b828054600181600116156101000203166002900490600052602060002090601f016020900481019282601f1061187757805160ff19168380011785556118a5565b828001600101855582156118a5579182015b828111156118a4578251825591602001919060010190611889565b5b5090506118b291906118b6565b5090565b6118d891905b808211156118d45760008160009055506001016118bc565b5090565b9056fe4e6f772077652063616e2072656372756974206d6f726520746561636865727321596f7520646f6e27742068617665207065726d697373696f6e20746f2075736520746869732066756e6374696f6ea265627a7a72315820438d0ec84f26241e1a53f447ec2f19a5a8c9aff3b2713389e183a09d19bba06564736f6c63430005100032",
  "source": "// SPDX-License-Identifier: MIT\r\npragma solidity >=0.4.22 <0.9.0;\r\nimport \"./Dead_inside.sol\";\r\n\r\ncontract YoungInvestor {\r\n    address investor;\r\n    DeadInsideToken public token;\r\n\r\n    CatHouse catInvestee;\r\n    PhilipMorris phInvestee;\r\n    MISiS msInvestee;\r\n\r\n    modifier restricted(){\r\n        require(\r\n            msg.sender == investor,\r\n            \"You don't have permission to use this function\"\r\n        );\r\n        _;\r\n    }\r\n\r\n    struct CatHouse{\r\n        string gratitude;\r\n        address add;\r\n    }\r\n\r\n    struct PhilipMorris{\r\n        string gratitude;\r\n        address add;\r\n    }\r\n\r\n    struct MISiS{\r\n        string gratitude;\r\n        address add;\r\n    }\r\n\r\n    constructor(address lol) public{\r\n        token = DeadInsideToken(lol);\r\n        token.transfer(investor, 50000);\r\n    }\r\n\r\n    function init(address add_1, address add_2, address add_3) public{\r\n        investor = msg.sender;\r\n        setCatHouse(add_1);\r\n        setPhilipMorris(add_2);\r\n        setMisis(add_3);\r\n    }\r\n\r\n    function setCatHouse(address add) private {\r\n        catInvestee = CatHouse(\"Now cats are more happy!\", add);\r\n        token.transfer(catInvestee.add, 0);\r\n    }\r\n\r\n    function setPhilipMorris(address add) private {\r\n        phInvestee = PhilipMorris(\"Now there are more smokers!\", add);\r\n        token.transfer(phInvestee.add, 0);\r\n    }\r\n    \r\n    function setMisis(address add) private {\r\n        msInvestee = MISiS(\"Now we can recruit more teachers!\", add);\r\n        token.transfer(msInvestee.add, 0);\r\n    }\r\n    \r\n    function getInvestorAddress() public view returns (address) {\r\n        return investor;\r\n    }\r\n\r\n    function getCatHouseAddress() public view returns (address) {\r\n        return catInvestee.add;\r\n    }\r\n\r\n    function getPhilipMorrisAddress() public view returns (address) {\r\n        return phInvestee.add;\r\n    }\r\n\r\n    function getMisisAddress() public view returns (address) {\r\n        return msInvestee.add;\r\n    }\r\n\r\n    function investCats(uint _value) public restricted {\r\n        token.transfer(catInvestee.add, _value);\r\n        emit Gratitude(catInvestee.gratitude);\r\n    }\r\n\r\n    function investPhilipMorris(uint _value) public restricted {\r\n        token.transfer(phInvestee.add, _value);\r\n        emit Gratitude(phInvestee.gratitude);\r\n    }\r\n\r\n    function investMisis(uint _value) public restricted {\r\n        token.transfer(msInvestee.add, _value);\r\n        emit Gratitude(msInvestee.gratitude);\r\n    }\r\n\r\n    function balance() public returns (uint) {\r\n        emit Invested(\"Balance of investor\" ,token.balanceOf(investor));\r\n        return token.balanceOf(investor); \r\n    }\r\n\r\n    function investedMisis() public {\r\n        emit Invested(\"Invested in MISIS\" ,token.balanceOf(msInvestee.add));\r\n    }\r\n\r\n    function investedPhilipMorris() public {\r\n        emit Invested(\"Invested in PhilipMorris\" ,token.balanceOf(phInvestee.add));\r\n    }\r\n\r\n    function investedCatHouse() public {\r\n        emit Invested(\"Invested in CatHouse\" ,token.balanceOf(catInvestee.add));\r\n    }\r\n\r\n    event Balance(uint bal);\r\n\r\n    event Gratitude(string gr);\r\n\r\n    event Invested(string str, uint inv);\r\n}\r\n",
  "sourcePath": "/home/kebabjoy/Рабочий стол/блокчейн)/лаба2/contracts/Old_investor.sol",
  "compiler": {
    "name": "solc",
    "version": "0.5.16+commit.9c3226ce.Emscripten.clang"
  },
  "schemaVersion": "3.3.4",
  "updatedAt": "2021-06-05T18:07:26.065Z",
  "networkType": "ethereum",
  "devdoc": {
    "methods": {}
  },
  "userdoc": {
    "methods": {}
  }
}